:020000040800F2
:1000000000000220C1630008555F0008575F000828
:10001000595F00085B5F00085D5F0008000000009A
:100020000000000000000000000000005F5F00080A
:10003000615F000800000000635F0008655F000862
:1000400011640008116400081164000811640008BC
:1000500011640008116400081164000811640008AC
:10006000116400081164000811640008116400089C
:10007000116400081164000811640008116400088C
:10008000116400081164000811640008116400087C
:10009000116400081164000811640008116400086C
:1000A000116400081164000811640008116400085C
:1000B000116400081164000811640008116400084C
:1000C000116400081164000811640008116400083C
:1000D000116400081164000811640008116400082C
:1000E000116400081164000811640008116400081C
:1000F000116400081164000811640008116400080C
:1001000011640008116400081164000811640008FB
:1001100011640008116400081164000811640008EB
:1001200011640008116400081164000811640008DB
:1001300011640008116400081164000811640008CB
:10014000116400081164000811640008715F000860
:1001500011640008116400081164000811640008AB
:10016000116400081164000811640008116400089B
:100170001164000811640008116400080000000008
:0801800011640008116400087D
:1001900010B5054C237833B9044B13B10448AFF3C1
:1001A00000800123237010BDAC000020000000007F
:1001B000B06C000808B5034B1BB103490348AFF30B
:1001C000008008BD00000000B0000020B06C0008F6
:1001D00053B94AB9002908BF00281CBF4FF0FF31AE
:1001E0004FF0FF3000F072B9ADF1080C6DE904CEAC
:1001F00000F006F8DDF804E0DDE9022304B0704702
:100200002DE9F047089E04468846002B4BD18A42D0
:10021000154667D9B2FA82F24AB1C2F1200701FA53
:1002200002F320FA07F7954047EA030894404FEAA3
:10023000154E230CB8FBFEF71FFA85FC0EFB178842
:1002400043EA084307FB0CF1994209D9EB1807F17F
:10025000FF3080F01B81994240F21881023F2B440D
:100260005B1AA4B2B3FBFEF00EFB103344EA034466
:1002700000FB0CFCA44509D92C1900F1FF3380F0D8
:100280000781A44540F2048102382C4440EA07402B
:10029000A4EB0C0400271EB1D4400023C6E90043A0
:1002A0003946BDE8F0878B4209D9002E00F0EB807B
:1002B0000027C6E9000138463946BDE8F087B3FAA1
:1002C00083F7002F47D18B4202D3824200F2FA809B
:1002D000841A61EB030301209846002EE0D0C6E9A2
:1002E0000048DDE702B9FFDEB2FA82F2002A40F0F0
:1002F0008F80491B4FEA154E1FFA85F80127B1FB85
:10030000FEFC230C0EFB1C1143EA014308FB0CF11D
:10031000994207D9EB180CF1FF3002D2994200F252
:10032000CD808446591AA3B2B1FBFEF00EFB101427
:1003300043EA044408FB00F8A04507D92C1900F152
:10034000FF3302D2A04500F2B6801846A4EB0804A1
:1003500040EA0C409FE7C7F1200CBB4022FA0CFE9C
:100360004EEA030E01FA07F420FA0CF521FA0CF319
:100370004FEA1E482543B3FBF8F92C0C08FB193350
:100380001FFA8EFA44EA034309FB0AF49C4202FA7C
:1003900007F200FA07F10BD91EEB030309F1FF3056
:1003A00080F087809C4240F28480A9F10209734466
:1003B0001B1BADB2B3FBF8F008FB103345EA034456
:1003C00000FB0AFAA24508D91EEB040400F1FF3332
:1003D0006BD2A24569D90238744440EA0940A0FBB7
:1003E0000289A4EB0A044C45C2464B4654D351D073
:1003F000002E69D0B1EB0A0564EB030404FA0CFC8F
:10040000FD40FC404CEA0505C6E90054002747E7DB
:10041000C2F1200320FA03F7954001FA02F021FA15
:1004200003F34FEA154E3843010CB3FBFEF71FFAF6
:1004300085F80EFB173341EA034107FB08F38B42B3
:1004400004FA02F407D9691807F1FF3C2FD28B4256
:100450002DD9023F2944CB1A81B2B3FBFEF00EFB2B
:10046000103341EA034100FB08F38B4207D96918B6
:1004700000F1FF3C17D28B4215D902382944C91A22
:1004800040EA07473BE73746304609E70746E7E6D5
:100490001846FBE64145ABD2B8EB020A69EB0E0207
:1004A00001381346A4E76046E9E7184695E7674632
:1004B000D1E781467CE702382C4447E7ACF1020CD7
:1004C0002B442FE7384608E73746E9E6704700BF78
:1004D000034613F8012B002AFBD1181A0138704784
:1004E00001F0FF01102A2BDB10F0070F08D010F8E5
:1004F000013B013A8B422DD010F0070F42B3F6D1E9
:10050000F0B441EA012141EA014122F007047FF001
:1005100000070023F0E80256083C85EA010586EA58
:10052000010685FA47F5A3FA87F586FA47F6A5FA94
:1005300087F68EB9EED1F0BC01F0FF0102F00702A0
:1005400032B110F8013B013A83EA010313B1F8D14B
:100550000020704701387047002D06BF354603382C
:10056000073815F0010F07D1013015F4807F02BF65
:10057000013015F4C03F0130F0BC0138704700BFB6
:1005800010B504460E4B18784FF47A73B3FBF0F3B2
:100590000C4A1068B0FBF3F000F0A8F868B90F2C13
:1005A00001D901200AE0002221464FF0FF3000F07F
:1005B0005DF8034B5C60002000E0012010BD00BF2F
:1005C000000000204400002008B50B4B1A6842F4DC
:1005D00000721A601A6842F480621A601A6842F463
:1005E00080721A60032000F02FF80020FFF7C8FF88
:1005F00005F062FC002008BD003C0240034A11687F
:10060000034B1B780B441360704700BF840100202C
:1006100000000020014B1868704700BF84010020D3
:1006200038B50446FFF7F6FF0546B4F1FF3F02D0A8
:10063000044B1B781C44FFF7EDFF401BA042FAD38C
:1006400038BD00BF00000020074AD36823F4E063F0
:100650001B041B0C000200F4E060184340F0BF6074
:1006600040F40030D060704700ED00E030B4174B2C
:10067000DB68C3F30223C3F10704042C28BF04245E
:100680001D1D062D18D9033B4FF0FF3505FA04F464
:1006900021EA0401994005FA03F322EA030319430E
:1006A00000280BDB0901C9B200F1604000F5614090
:1006B00080F8001330BC70470023E5E700F00F001E
:1006C0000901C9B2024B1954F4E700BF00ED00E084
:1006D00014ED00E000F01F02400901239340024A9C
:1006E00042F82030704700BF00E100E00138B0F16F
:1006F000807F0AD2064B5860064AF02182F8231008
:100700000020986007221A6070470120704700BFE0
:1007100010E000E000ED00E0042805D0054A136871
:1007200023F0040313607047024A136843F0040384
:100730001360704710E000E0704708B5FFF7FCFF5A
:1007400008BD000000230F2B00F2D780F0B482B068
:1007500039E0072200E00022B2403A430234674EFB
:1007600046F82420664A1468EA4302EA04064F6801
:1007700017F4803F01D045EA0406614C26606468A6
:1007800002EA04064F6817F4003F01D045EA040668
:100790005B4C6660A46802EA04064F6817F4801F89
:1007A00001D045EA0406564CA660E46822404E6833
:1007B00016F4001F01D045EA0402514CE2600133F7
:1007C0000F2B00F2978001229A400C6804EA020580
:1007D000AA42F4D14C68022C01D0122C10D1DE08B0
:1007E000083650F826C003F00704A7000F24BC40C9
:1007F0002CEA040C0C69BC4044EA0C0440F8264086
:1008000004685F000326BE40F64306EA040C4C6809
:1008100004F00304BC4044EA0C0404604C6804F196
:10082000FF3CBCF1010F03D9112C01D0122C10D1C7
:10083000846806EA040CCC68BC4044EA0C0484607A
:10084000446824EA02024C68C4F300149C40144338
:100850004460C26816408A68BA403243C2604A683F
:1008600012F0805FABD000220192264A546C44F40F
:1008700080445464526C02F480420192019A9C08B4
:10088000A61C1E4A52F8267003F0030296000F229F
:10089000B24027EA02071C4A90423FF45CAF02F5DF
:1008A000806290421AD002F58062904218D002F520
:1008B0008062904216D002F58062904214D002F518
:1008C0008062904212D002F58062904210D002F510
:1008D000806290423FF43DAF08223DE701223BE7B2
:1008E000022239E7032237E7042235E7052233E7FE
:1008F000062231E702B0F0BC704770470038014073
:10090000003C0140003802400000024012B90904D6
:100910008161704781617047F8B50668346A04F0F8
:100920000F07C4F34343C4F30A14022B2ED16CB354
:1009300007EB8702D3000344596C39B305462246BE
:10094000304601F091F9BA003A44D3002B445A6C76
:1009500022445A64DA6C2244DA6406EB4713D3F873
:1009600010150B4A0A408AB1D3F8002522F08042C4
:1009700042F00042C3F80025BB00D919CA002A443E
:1009800092F8503083F0010382F85030F8BD00BF78
:100990000000F81FF0B585B09DF828609DF82C7018
:1009A000BDF830C090F89042012C2AD005460120B5
:1009B00085F89002880000EB010E4FEACE042C442B
:1009C00084F83830A4F840C084F8391084F83F70B7
:1009D00002F07F0E84F83AE04FEAD21E84F83BE042
:1009E0000844C4002C4484F83C60CDF808C001974A
:1009F0000096286801F051FA002385F8903205B07E
:100A0000F0BD0220FBE790F89032012B0BD010B51F
:100A10000446012380F89032006801F0F8FB0020C2
:100A200084F8900210BD02207047002837D0F0B53E
:100A30008BB00646032380F8913205F0FBFA30684C
:100A400001F0BCF8344654F810CB6D460FCC0FC5FE
:100A50000FCC0FC594E8030085E80300371D97E825
:100A60000E00604601F066F80121306801F0ACF834
:100A7000344654F810CB6D460FCC0FC50FCC0FC5C4
:100A800094E8030085E8030097E80E00604601F053
:100A900025F9012386F8913200200BB0F0BD01202A
:100AA0007047F8B59DF81870BDF820609DF824C017
:100AB0008D000D44EC00044484F83B2084F83F3062
:100AC0006FB901EB8105EC000444032584F8425022
:100AD000032B00F2B380DFE803F00AAA3E7B01EBB0
:100AE0008105EC000444022584F84250F0E7012F10
:100AF00040F0A480002A40F0A18036B901EB8102C9
:100B0000D3000344012283F8512001EB8102D3007A
:100B1000034493F85130B3B901EB8102D30003448D
:100B2000002283F8422001EB8102D300034493F8B2
:100B30005C30022B00F0828001EB8102D300034481
:100B400083F83DC07AE001EB8102D3000344022226
:100B500083F84220E7E722BB01EB8102D300034484
:100B600093F85130ABB901EB8102D300034400226A
:100B700083F8422001EB8102D300034493F85C30F8
:100B8000022B5BD001EB8102D300034483F83DC00C
:100B900054E001EB8102D3000344022283F8422097
:100BA000E8E701EB8102D300034493F850303BB9EE
:100BB00001EB8102D3000344002283F842203DE090
:100BC00001EB8102D3000344022283F8422035E086
:100BD000B2B901EB8102D300034493F851303BB921
:100BE00001EB8102D3000344002283F8422025E078
:100BF00001EB8102D3000344022283F842201DE06E
:100C000001EB8102D300034493F850303BB901EB70
:100C10008102D3000344002283F842200EE001EB5E
:100C20008102D3000344022283F8422006E001EB54
:100C30008102D3000344002283F842208A00541822
:100C4000E3000344079C5C649E64002483F85C40DA
:100C5000DC6483F8391083F85D401144CB0003F164
:100C60003801027C0144006801F088F9F8BD30B514
:100C700083B005460468D4F840340193D4F8403476
:100C80000093009B23F02E030093019B13F0020FAF
:100C900007D0019B13F0010F25D1009B43F0020305
:100CA0000093019B13F0080F10D0009B43F0080342
:100CB0000093019B13F0040F31D0AB69022B19D0C4
:100CC000EB68032B26D0284605F0F8F9019B13F0BA
:100CD000200F03D0009B43F020030093009BC4F837
:100CE000403403B030BDA36923F00053A36105F085
:100CF000E5F9D2E7019B03F4C023B3F5802F04D0BC
:100D00000121286801F060F8DDE70221286801F080
:100D10005BF8D8E74EF66022C4F80424D3E7D4F891
:100D2000403423F02E03C4F840342A68936943F01A
:100D300000539361CAE7F8B506460D46076807EB0E
:100D4000411707F5A064A36813F0040F41D00423F2
:100D5000A360E36843F00203E360A36813F4007F39
:100D60006DD1A36813F0010F00F08A80336963B17D
:100D7000AB005919CA003244916C2269C2F31202C5
:100D8000891A2B44DA003244D164AA002A44D300E1
:100D90003344012283F85D2000219965A26093F815
:100DA0003F30002B57D0022B55D0032B5DD1D7F805
:100DB000003543F00053C7F8003505EB8502D3003A
:100DC0003344012283F85C202946304605F082F93D
:100DD0004BE0A36813F0200F02D02023A360BCE7F0
:100DE000A36813F0080F17D1A36813F4806FB4D071
:100DF000E36843F00203E360006801F008FA10239F
:100E0000A36005EB8502D3003344082283F85D20FC
:100E10004FF48063A360A0E7E36843F00203E3605C
:100E200001EB8102D3000344052283F85D201023E7
:100E3000A3600823A360006801F0E9F98DE7E36887
:100E400043F00203E3602946306801F0E0F94FF413
:100E50000073A36013E0E36843F00203E3602946F4
:100E6000306801F0D4F91023A360AB005919CA000F
:100E7000324492F8503083F0010382F85030F8BDCC
:100E8000A36813F0020F50D0E36823F00203E3607D
:100E900005EB8502D300334493F85D30012B20D05D
:100EA000052B32D0062B01D0082B21D1AA002A44D1
:100EB000D30033449A6D511C9965032A2DD9AA0099
:100EC0002A44D300334400229A65042283F85C202C
:100ED000D7F8003523F0804343F00043C7F80035CE
:100EE00006E005EB8502D3003344012283F85C2041
:100EF0000223A36005EB8502D300334493F85C2002
:100F00002946304605F0E6F8B9E705EB8502D3003F
:100F10003344052283F85C20EAE705EB8502D30021
:100F20003344022283F85C20D2E7A36813F0800FD9
:100F300026D1A36813F0100FA1D005EB8502D300D2
:100F4000334493F83F30032B32D0AB005919CA0019
:100F50003244032182F85D101022A2601D4405FA7C
:100F600001F31E4496F83F300BB1022B87D1D7F81E
:100F7000003523F0804343F00043C7F800357EE797
:100F8000E36843F00203E360AB005919CA0032443E
:100F9000916D013191652B44DA003244062382F8C9
:100FA0005D302946306801F032F98023A36066E79E
:100FB000E36843F00203E3602946306801F027F953
:100FC000C3E7F8B5046804EB411404F5A064A36812
:100FD00013F0040F24D10E460546A36813F0200F2A
:100FE00025D02023A36001EB8102D300034493F8B2
:100FF0003D30012B1AD18F007A18D300034404220C
:1010000083F85D20E36843F00203E360006801F0C9
:10101000FEF8B919C8002844022380F85C3005E0C6
:101020000423A360E36843F00203E360F8BDA36810
:1010300013F0400F4CD1A36813F4007F5FD1A36875
:1010400013F0010F66D1A36813F0080F77D1A368DE
:1010500013F0100F40F08480A36813F0800F40F06D
:101060009580A36813F4806F40F0A180A36813F00B
:10107000020FDBD0E36823F00203E36001EB81029F
:10108000D300034493F85D30012B00F0A480032BC0
:1010900000F0C480042B00F0C980052B00F0D18043
:1010A000062B02D0082B40F0A180B2003244D300BE
:1010B0002B449A6D511C9965032A40F2CA8028235B
:1010C00003FB065300229A65042283F85C208DE01E
:1010D0008B005918CA000244042182F85D10334481
:1010E000DA00024400239365E36843F00203E360FF
:1010F0003146006801F08BF84023A36096E7E3686F
:1011000043F00203E360006801F081F84FF40073DC
:10111000A3608BE78F007A18D300034400229A65FE
:10112000E36843F00203E360006801F070F8012314
:10113000A360B919C800284480F85D3076E7082319
:10114000A360E36843F00203E360006801F05FF826
:1011500006EB8601C8002844052380F85D3065E76A
:101160008F007A18D300034400229A65E36843F0A5
:101170000203E360006801F04AF8B919C800284486
:10118000032380F85D301023A3604FE7E36843F04A
:101190000203E360006801F03AF806EB8601CB0039
:1011A0002B44062283F85D208023A3603EE7E3689A
:1011B00043F00203E360006801F029F81023A36004
:1011C0004FF48063A36006EB8601CB002B4408221A
:1011D00083F85D202AE78A000A44D30003440122F1
:1011E00083F85C2093F83F30022B0CD00223A360DD
:1011F00006EB8602D3002B4493F85C203146284648
:1012000004F068FF12E78A000A44D300034493F80D
:10121000512082F0010283F85120E7E701EB8102BF
:10122000D3000344022283F85C20DFE78A000A44EB
:10123000D3000344022283F85C20002283F83D207F
:10124000D4E701EB8102D3000344052283F85C203C
:10125000CCE7282303FB0653022283F85C20C5E772
:10126000F8B504460568284600F016FD012800D0B0
:10127000F8BD206800F00CFD0028F9D0206800F0CF
:1012800007FD10F4001F03D023684FF400125A61C9
:10129000206800F0FDFC10F4801F03D023684FF499
:1012A00080125A61206800F0F3FC10F0806F03D0C8
:1012B00023684FF080625A61206800F0E9FC10F06A
:1012C000020F02D0236802225A61206800F0E0FC7D
:1012D00010F0005F25D1206800F0DAFC10F0807F6C
:1012E00031D1206800F0D4FC10F0080F2FD1206815
:1012F00000F0CEFC10F0007F30D1206800F0C8FC78
:1013000010F0100FB4D02268936923F0100393619A
:101310002046FFF701FB2268936943F010039361B5
:10132000A6E7D5F8403423F02E03C5F84034204614
:1013300004F0CAFE0121206800F046FD23684FF04A
:1013400000525A61C7E72046FFF791FCC9E72046E3
:1013500004F0AEFE236808225A61C8E7206800F056
:1013600047FF0746002604E0F1B22046FFF729FEBA
:101370000136A368B3420FD90123B3403B42F7D0F3
:1013800005EB4613D3F8003513F4004FECD0F1B25F
:101390002046FFF7D0FCEBE723684FF000725A615C
:1013A000ABE738B590F89032012B0ED004460125FA
:1013B00080F89052006800F0FBFB2946206800F09E
:1013C0003DFD002084F8900238BD0220FCE790F833
:1013D0009032012B0BD010B50446012380F89032D7
:1013E000006801F02FF8002084F8900210BD022060
:1013F000704708B5006800F007FD08BD01EB8101EA
:10140000CB00184490F85C00704701EB8101CB00E1
:101410001844C06C704708B5006800F039FD08BD7D
:1014200008B5006800F02BFD08BD0000002800F0A2
:10143000BB8170B582B00446036813F0010F3BD046
:10144000A74B9B6803F00C03042B2CD0A44B9B6888
:1014500003F00C03082B21D06368B3F5803F4FD015
:10146000B3F5A02F52D09E4B1A6822F480321A6036
:101470001A6822F480221A606368002B50D0FFF7AC
:10148000C9F80546964B1B6813F4003F14D1FFF7CB
:10149000C1F8401B6428F5D903208AE1904B5B68B2
:1014A00013F4800FD8D08E4B1B6813F4003F03D089
:1014B0006368002B00F07A81236813F0020F55D087
:1014C000874B9B6813F00C0F3ED0854B9B6803F055
:1014D0000C03082B33D0E368002B68D0814B01222A
:1014E0001A60FFF797F805467D4B1B6813F0020F53
:1014F00054D1FFF78FF8401B0228F5D9032058E19B
:10150000774A136843F480331360B5E7744B1A6865
:1015100042F480221A601A6842F480321A60ABE703
:10152000FFF778F805466E4B1B6813F4003FC3D0F5
:10153000FFF770F8401B6428F5D9032039E1684BA8
:101540005B6813F4800FC6D1654B1B6813F0020F64
:1015500004D0E368012B01D001202AE1604A13681E
:1015600023F0F803216943EAC1031360236813F0F1
:10157000080F40D0636963B35B4B01221A60FFF729
:1015800049F80546564B5B6F13F0020F33D1FFF756
:1015900041F8401B0228F5D903200AE1504A13689C
:1015A00023F0F803216943EAC1031360DEE74D4BE2
:1015B00000221A60FFF72EF80546494B1B6813F00E
:1015C000020FD3D0FFF726F8401B0228F5D90320DD
:1015D000EFE0454B00221A60FFF71CF80546404B30
:1015E0005B6F13F0020F06D0FFF714F8401B0228C0
:1015F000F5D90320DDE0236813F0040F79D0384BD0
:101600001B6C13F0805F33D100230193344B1A6CB1
:1016100042F080521A641B6C03F080530193019BCB
:101620000125324B1B6813F4807F23D0A368012B64
:1016300034D0052B38D02A4B1A6F22F001021A67DA
:101640001A6F22F004021A67A368002B36D0FEF747
:10165000E1FF0646224B1B6F13F0020F48D1FEF745
:10166000D9FF801B41F288339842F3D90320A0E0D0
:101670000025D6E71D4A136843F480731360FEF714
:10168000C9FF0646194B1B6813F4807FCED1FEF7C5
:10169000C1FF801B0228F5D903208AE0104A136F8E
:1016A00043F001031367CFE70D4B1A6F42F00402BA
:1016B0001A671A6F42F001021A67C5E7FEF7AAFF20
:1016C0000646074B1B6F13F0020F11D0FEF7A2FF67
:1016D000801B41F288339842F3D9032069E000BFB0
:1016E0000038024000004742800E47420070004030
:1016F000E5B9A369002B5BD0304A926802F00C0276
:10170000082A58D0022B17D02D4B00221A60FEF762
:1017100081FF0446294B1B6813F0007F42D0FEF77F
:1017200079FF001B0228F5D9032042E0234A136CFD
:1017300023F080531364DCE7214B00221A60FEF78C
:1017400069FF05461D4B1B6813F0007F06D0FEF7AE
:1017500061FF401B0228F5D903202AE0E369226AD1
:101760001343626A43EA8213A26A5208013A43EAC7
:101770000243E26A43EA0263104A5360104B0122BB
:101780001A60FEF747FF04460C4B1B6813F0007FFE
:1017900006D1FEF73FFF001B0228F5D9032008E021
:1017A000002006E0002004E001207047012000E056
:1017B000002002B070BD0120FBE700BF00380240EE
:1017C00060004742324B9B6803F00C03042B5CD053
:1017D000082B01D02F4870472DE9F04B2C4B5A684D
:1017E00002F03F025B6813F4800F2BD0284B5B683C
:1017F000C3F388131E4600275C010025E41A65EB3D
:101800000705A90141EA9461A001001B61EB0501F4
:10181000CB0043EA5073C400A01943EB07014B020D
:1018200043EAD0534402204619460023FEF7D0FC79
:10183000174B5B68C3F3014301335B00B0FBF3F06C
:10184000BDE8F08B124B5B68C3F388131E4600277C
:101850005C010025E41A65EB0705A90141EA9461E2
:10186000A001001B61EB0501CB0043EA5073C400EB
:10187000A01943EB07018B0243EA905384022046F0
:1018800019460023FEF7A4FCD2E70348704700BFC7
:10189000003802400024F40000127A00002800F012
:1018A0009D8070B504464F4B1B6803F00F038B42BD
:1018B00009D2CBB24B4A1370136803F00F038B426B
:1018C00001D0012070BD236813F0020F17D013F070
:1018D000040F04D0444A936843F4E05393602368B0
:1018E00013F0080F04D0404A936843F460439360B8
:1018F0003D4A936823F0F003A068034393600D46CC
:10190000236813F0010F32D06368012B21D09A1E97
:10191000012A25D9344A126812F0020F60D03249E8
:101920008A6822F0030213438B60FEF773FE0646BB
:101930002D4B9B6803F00C036268B3EB820F16D04B
:10194000FEF768FE801B41F288339842F0D90320ED
:10195000B8E7254A126812F4003FE0D10120B1E750
:10196000214A126812F0007FD9D10120AAE71D4B4D
:101970001B6803F00F03AB4209D9EAB2194B1A7086
:101980001B6803F00F03AB4201D001209AE72368E4
:1019900013F0040F06D0144A936823F4E053E1686F
:1019A0000B439360236813F0080F07D00E4A936827
:1019B00023F46043216943EAC1039360FFF702FF08
:1019C000094B9B68C3F30313084AD35CD840084B08
:1019D00018600020FEF7D4FD002073E70120704757
:1019E00001206FE7003C02400038024054880008A4
:1019F00044000020014B1868704700BF44000020DD
:101A000028B370B5044615460E4690F84930CBB160
:101A100004F10801206800F01DF8A2683146206832
:101A200000F046F8236BA2682946606800F060F871
:101A30002268A16852F8213043F0010342F82130B6
:101A4000002070BD80F8483004F080FAE0E7012003
:101A50007047000070B40C6850F82430134E1E40DC
:101A60004A688D6842EA0503CA6813430A6913434A
:101A70004A6913438A691343CA6913430A6A1343C1
:101A80004A6A13438A6A1343CA6A1343CA6B1343ED
:101A90000A6B13433343082D04D040F82430002050
:101AA00070BC704743F04003F7E700BF8000F0FFD1
:101AB00030B4013250F8224004F040440B684D68C5
:101AC00043EA05138D6843EA0523CD6843EA0543DD
:101AD0000D69013D43EA05534D69023D43EA056343
:101AE00089690B43234340F82230002030BC704703
:101AF000B3F5804F05D06FF0704340F822300020DE
:101B0000704730B450F82230094C1C400B684D68C7
:101B100043EA05138D6843EA0523CD6843EA05438C
:101B200089690B43234340F82230002030BC7047C2
:101B30000000F0CF84B010B5044603A880E80E0082
:101B4000089B012B20D1A36B23F48033A363E368AC
:101B500023F4840323F04003E360E36823F4401399
:101B6000E3600F9B012B0AD0204600F099F8069BFA
:101B7000012B14D00020BDE8104004B07047E3688A
:101B800043F48013E360EFE7E36843F04003E3606E
:101B9000204600F085F84FF48033A363E7E7A3689D
:101BA00043F00603A360A36843F02003A360E1E7CA
:101BB000836843F00103836000207047836823F04B
:101BC000010383600020704708B5C36823F0C04359
:101BD000C360012909D019B9C36843F08043C360C9
:101BE0003220FEF71DFD002008BDC36843F00053FE
:101BF000C360F5E7890141F0200101610023013351
:101C0000054A934205D8026912F0200FF7D100204F
:101C100070470320704700BF400D0300102303618D
:101C200000230133054A934205D8026912F0100FD0
:101C3000F7D1002070470320704700BF400D03001C
:101C400070B49DF80C4064B903339D0807E000EBC5
:101C5000023303F5805351F8046B1E600134AC422B
:101C6000F5D3002070BC70470332920800239342E2
:101C70000CD210B400F58054246841F8044B0133B1
:101C80009342F7D308465DF8044B70470846704707
:101C90004269806910407047406900F00100704758
:101CA000002301330C4A934211D80269002AF8DA62
:101CB000036943F00103036100230133064A9342A1
:101CC00007D8026912F0010FF7D1002070470320F6
:101CD00070470320704700BF400D030084B038B543
:101CE000044605A880E80E0025460023C4F8003EFF
:101CF000A36B23F48023A363A36B23F40023A363C8
:101D0000A36B43F40013A363079B032B0ED0D4F8FB
:101D1000003423F00403C4F8003410212046FFF7F8
:101D200069FF2046FFF77AFF002213E0B4F1A04FCD
:101D3000EDD0D4F8003443F00403C4F80034ECE7E9
:101D400005EB42134FF0FF31C3F808150021C3F82B
:101D50000C150132069B9342F2D80121204600F077
:101D60006DF8C820FEF75CFC0023A3614FF0FF3341
:101D70006361B4F1A04F17D04FF40073636203F1B5
:101D80008073A3620D4BC4F80031089B1BB9A36993
:101D900043F01003A361A269094B1343A361002020
:101DA000BDE8384004B070478023636203F5C00388
:101DB000A362044BC4F80031E7E700BF0003E00072
:101DC000080020A3E000400010B400F58064D0F8C3
:101DD000003423F00303C0F80034D0F8003401F0DD
:101DE00003021343C0F80034012905D0022907D0AB
:101DF00000205DF8044B70474BF680336360F7E7D3
:101E000041F270736360F3E710B582B00446D0F816
:101E100040340193019B23F02E030193019B43F473
:101E20008073C0F840340A20FEF7FAFB019B23F4CC
:101E30008073C4F84034002002B010BD82B0D0F8E6
:101E400040340193019B23F02E030193019B13F473
:101E5000805F01D101290CD0019B13F4805F05D074
:101E600021B9019B23F48053C0F84034002002B014
:101E70007047019B43F48053C0F84034ECE782B0D4
:101E8000D0F8403401930198C0F3414002B070474C
:101E900000F58060806880B27047F0B49DF814400F
:101EA00000EB411505F5A0664FF0FF37B760032C36
:101EB0001CD8DFE804F0024D021540F29D47F760A0
:101EC00012F0800F07D1B0F1A04F0FD0F76847F0A4
:101ED0006007F7600AE0F76847F48077F76005E08D
:101EE00040F29D67F76012F0800F2CD1D0F8186493
:101EF000012707FA01F13143C0F81814816941F054
:101F0000007181619B0503F0FE53D10201F4F041A1
:101F10000B4352B202F4004213439DF81020022AF0
:101F200021D000221343A20402F440221343BDF83F
:101F30001820C2F30A021343C5F80035032C15D04C
:101F40000020F0BC7047F76847F48077F760CDE772
:101F500040F22527F76012F0800FC7D0F76847F4EA
:101F6000C077F760C2E74FF40032DBE7D5F8003501
:101F700043F00053C5F80035E2E7000080B58AB0B1
:101F800002AFF860B9601346FB7100237B77002332
:101F90007B830023FB834FF480733B8300237B61AF
:101FA000FB68B3F1A04F2AD0BB681B79002B26D168
:101FB000FB79002B0BD1BB685B79012B07D1BB6888
:101FC0005B781946F86800F003FA002309E1FB7911
:101FD000012B14D1BB685B785A01FB68134403F5ED
:101FE000A063DB68BA6852785101FA680A4402F5C6
:101FF000A06223F06003D360BB6800225A71BB6803
:102000001B69002B19D0BB681B69BA68128913447D
:10201000013BBA681289B3FBF2F3FB83FA8B3B8B6B
:102020009A420CD93B8BFB83FB8BBA68128902FB6B
:1020300003F31A46BB681A6101E00123FB83BB6806
:10204000DB78002B07D0FB8BBA68128902FB03F305
:102050001A46BB681A61BB681B69C3F31202FB8B8B
:10206000DB041946614B0B401A43BB689B7A5B0744
:1020700003F0C043B96849784801F968014401F5A3
:10208000A06113430B61FB79002B0AD0BB68D968B0
:10209000BB685B785A01FB68134403F5A0630A46EA
:1020A0005A61FB6803F580639B6803F00103002B12
:1020B0000CBF01230023DBB27B77BB685B785A013E
:1020C000FB68134403F5A0631B68BA68527851019A
:1020D000FA680A4402F5A06223F000531360BB685B
:1020E0005B785A01FB68134403F5A0631B687A7F91
:1020F00052071046BA6852785101FA680A4402F54C
:10210000A06203431360BB685B785A01FB68134409
:1021100003F5A0631B687B617B6923F080437B61CF
:102120007B6943F000437B61BB685B785A01FB68C5
:10213000134403F5A0631A467B691360FB79002BF7
:102140004ED1BB68DB78002B4AD1BB681B69002BE2
:1021500046D0BB68DB79032B30D801A252F823F0BC
:1021600071210008952100087121000895210008BF
:10217000BB681B6903339B087B837A8BFB68DB6A34
:102180009BB29A421CD9FB689B6943F02002FB6812
:102190009A6115E0BB681B6903339B087B837A8BCC
:1021A000FB6803F580631B699BB29A420AD9FB68FE
:1021B0009B6943F08062FB689A6103E000BF02E024
:1021C00000BF00E000BFBB68D968BB685A78BB6835
:1021D0001B6998B2002300930346F868FFF730FDAF
:1021E000002318462037BD4680BD00BF0000F81F01
:1021F00080B483B000AF78607B6803F580635B696F
:102200009BB218460C37BD465DF8047B704780B41E
:1022100085B000AF78600B46FB700023FB60FB7855
:102220005A017B68134403F5A0631B689B0C03F001
:102230000303002B0BD0FB785A017B68134403F592
:10224000A0631B689B0C03F00303022B5CD1FB789B
:102250005A017B68134403F5A0631B68FA785101A7
:102260007A680A4402F5A06243F0804313607B68F9
:10227000DB6A03F47F03002B33D1FB785A017B68C0
:10228000134403F5A0631B68FA7851017A680A4485
:1022900002F5A06223F000431360FB785A017B68CB
:1022A000134403F5A0631B68FA7851017A680A4465
:1022B00002F5A06243F000431360FB680133FB604A
:1022C000FB68B3F57A7F1DD8FB785A017B6813440D
:1022D00003F5A0631B6803F00043B3F1004FECD09B
:1022E0006FE0FB785A017B68134403F5A0631B6819
:1022F000FA7851017A680A4402F5A06243F000437B
:1023000013605EE000BF5CE0FB785A017B68134419
:1023100003F5A0631B68FA7851017A680A4402F554
:10232000A06243F0804313607B6803F580631B6900
:102330009BB2002B33D1FB785A017B68134403F521
:10234000A0631B68FA7851017A680A4402F5A0621A
:1023500023F000431360FB785A017B68134403F5B4
:10236000A0631B68FA7851017A680A4402F5A062FA
:1023700043F000431360FB680133FB60FB68B3F577
:102380007A7F1DD8FB785A017B68134403F5A0635C
:102390001B6803F00043B3F1004FECD011E0FB7871
:1023A0005A017B68134403F5A0631B68FA78510156
:1023B0007A680A4402F5A06243F00043136000E02B
:1023C00000BF002318461437BD465DF8047B7047F4
:1023D00080B485B000AF78600B46FB700123FB73BF
:1023E0000023BB60FB7BDB041A46154B1340FA78D5
:1023F00051017A680A4402F5A06243F00043136178
:10240000FB785A017B68134403F5A0631B68BB602B
:10241000BB6823F08043BB60BB6843F00043BB60F4
:10242000FB785A017B68134403F5A0631A46BB6826
:102430001360002318461437BD465DF8047B7047CF
:102440000000F81F80B586B000AF786000233B61C4
:102450007868FFF7B3FB10217868FFF7CBFB78684B
:10246000FFF7DCFB0023FB751FE0FB7D5A017B6857
:10247000134403F5A0631B68FB60FB6843F08043D3
:10248000FB60FB6823F00043FB60FB6823F4004320
:10249000FB60FB7D5A017B68134403F5A0631A4679
:1024A000FB681360FB7D0133FB75FB7D0F2BDCD9D3
:1024B0000023FB7534E0FB7D5A017B68134403F570
:1024C000A0631B68FB60FB6843F08043FB60FB6814
:1024D00043F00043FB60FB6823F40043FB60FB7D9B
:1024E0005A017B68134403F5A0631A46FB68136026
:1024F0003B6901333B613B69B3F57A7F0CD8FB7DC7
:102500005A017B68134403F5A0631B6803F0004382
:10251000B3F1004FECD000E000BFFB7D0133FB7551
:10252000FB7D0F2BC7D97B6803F580631A464FF0FC
:10253000FF3353617B684FF0FF325A617868FFF7D1
:1025400037FB002318461837BD4680BD0020704772
:1025500070B5D0F87433DC69237B23B1012B00F014
:102560004381012070BD0646B4F8F81023689942F3
:102570000AD30023A4F8F83001252573D0F8C4331A
:10258000022198472846EDE7342303FB014301224B
:1025900083F8912093F89030082B00F22781DFE830
:1025A00013F00900250143009D001300D20025010E
:1025B00025011E01342303FB0143042283F89020EC
:1025C000D0F8B833C4F8FC30342202FB01F2983260
:1025D00022440732C9B2304600F049FD034638B9FB
:1025E000B4F8F820342101FB0242022182F8901055
:1025F000022B03D0042B0BD00120B3E7B4F8F83042
:10260000342202FB0344052384F890300120A9E71B
:10261000B4F8F830342202FB0344012084F890001F
:10262000022384F891309DE7C9B200F0B2FC024663
:10263000C0B9B4F8F830342101FB034191F892108D
:10264000B1B1342101FB0341012081F8C1003421E3
:1026500001FB0343032183F89010002183F89110BC
:1026600083F89210022A0AD0042A2BD0012079E79D
:10267000342101FB0341002081F8C100E7E7B4F8F1
:10268000F830342202FB034292F89220022A12D040
:10269000342202FB0342012182F8C110342202FBE2
:1026A0000344052384F89030012084F8910002232C
:1026B00084F8923056E7342202FB0342002182F86C
:1026C000C110EBE7B4F8F830342202FB03440120D8
:1026D00084F89000022384F8913043E7342202FB0F
:1026E00001F2903222440432C9B200F079FC28B1E0
:1026F000022812D004281AD0012033E7B4F8F830A9
:10270000342202FB0342012082F89000002182F86B
:1027100091100344A4F8F83024E7B4F8F8303422D8
:1027200002FB0344052384F8903001201AE7B4F833
:10273000F830342202FB0344012084F89000022385
:1027400084F891300EE7342202FB01F298322244E1
:102750000432C9B200F0F1FC034698B9B4F8F8208D
:10276000342101FB024191F89C10062910D0022966
:102770000ED0342101FB0241012081F89000024477
:10278000A4F8F820022B14D0042B1CD00120E9E679
:10279000D6F8B813D4F8FC00091A42F20F7081423F
:1027A000E7D8342303FB0242022382F89030012051
:1027B000D8E6B4F8F830342202FB0344082384F846
:1027C00090300120CEE6B4F8F830342202FB034406
:1027D000012084F89000022384F89130C2E6013190
:1027E000A4F8F8100120BDE60020BBE60120B9E600
:1027F00038B5D0F87433DC69A37B022B04D0032BEB
:102800001FD00BB1012038BD214600F071FA03281A
:1028100006D00028F7D125780135256000230DE08A
:1028200000202060F7E7342202FB0342022182F8F5
:102830009210002182F8C1100133DBB29D42F2D820
:10284000E1E7002101F006FA18B9E37BA373012048
:10285000D9E70120D7E738B50446D0F87433DD69ED
:10286000697969B92979A1B9D4F87433D86928B1DB
:1028700003F0FCFDD4F874330022DA61002038BD87
:1028800001F07AFA6979204601F08DFA00236B7124
:10289000E8E7204601F070FA2979204601F083FA32
:1028A00000232B71E0E7F0B585B00446D0F874132F
:1028B00050230622097900F02BFEFF2800F08980C2
:1028C0000146204600F01AFED4F874534FF480708D
:1028D00003F0C4FDE861D4F87433DD6994F81F3364
:1028E0001A2202FB034393F8483313F0800F5ED1A2
:1028F000AB7194F81F331A2202FB0343B3F84A3337
:102900002B8194F81F331A2202FB034393F85033B0
:1029100013F0800F54D1AB7194F81F331A2202FBCD
:102920000343B3F852332B810026A5F8F860A5F8CD
:10293000FA602E736E73AE73A979204601F021FA06
:102940006871E979204601F01CFA2871204600F0F0
:10295000DDF96822314605F1900003F08FFD94F80F
:102960001C33AA796979288902900227019794F883
:102970001D030090204601F0EFF994F81C33EA792A
:10298000297968890290019794F81D0300902046E8
:1029900001F0E2F932462979204603F057FC32462D
:1029A0006979204603F052FC304605B0F0BDEB716A
:1029B00094F81F3302FB0343B3F84A336B81A0E75B
:1029C000EB7194F81F3302FB0343B3F852336B816E
:1029D000AAE70220E9E730B583B00C46D0F874339B
:1029E000DD69342303FB015393F89030062B07D0A5
:1029F000072B29D0052B4BD00123184603B030BD3F
:102A000000220092134600F024FC034628B102285D
:102A10000AD0042810D00123EFE7342202FB04542B
:102A2000012284F89020E8E7342303FB04540523B3
:102A300084F890300123E0E7342303FB0454082397
:102A400084F890300223D8E700220092134600F069
:102A5000BEFB034628B102280AD0042810D0012367
:102A6000CBE7342202FB0454012284F89020C4E70F
:102A7000342303FB0454052384F890300123BCE77E
:102A8000342303FB0454082384F890300223B4E772
:102A9000342202FB01F298322A44043200F04DFB4A
:102AA0000246A0B9342101FB0451012381F8903082
:102AB000022381F89130022A9FD0042A9DD1342329
:102AC00003FB0454082384F89030022395E7012384
:102AD000F1E7D0F87433DA690378DBB20A2B01D05E
:102AE00000207047342303FB012191F89100B0FAD4
:102AF00080F040097047D0F87433DB690078C0B2C9
:102B00000A2801D00220704770B4342000FB01F184
:102B10009031194401F130030E684D688C68C86823
:102B2000166055609460D060103110329942F3D134
:102B30000B681360002070BC7047F0B583B0D0F80C
:102B40007443E76990F81E43002C3BD00478E4B24C
:102B50000A2C39D1342404FB017494F89040012CE0
:102B600001D0022031E00E4604460620387334219D
:102B700001FB067181F89000A7F8FA6008990091AE
:102B80003146204600F065FBD4F8B8533146204664
:102B9000FFF721FF012811D1D4F8B823521B42F2CC
:102BA0001073089903FB01F39A4203D894F81E337B
:102BB000002BEBD101233B73022006E001233B7382
:102BC000002002E0022000E0022003B0F0BDF0B5DA
:102BD00083B0D0F87443E76990F81E43002C3BD0D3
:102BE0000478E4B20A2C39D1342404FB017494F83B
:102BF0009040012C01D0022031E00E46044607200F
:102C00003873342101FB067181F89000A7F8FA604F
:102C1000089900913146204600F0D9FAD4F8B8530B
:102C200031462046FFF7D7FE012811D1D4F8B8234A
:102C3000521B42F21073089903FB01F39A4203D826
:102C400094F81E33002BEBD101233B73022006E0E6
:102C500001233B73002002E0022000E0022003B0C9
:102C6000F0BD000010B5D0F87433DC69217903F0B1
:102C700099FA0D2812D1A26F0D4B9A4210D1E26F32
:102C8000A36D9A4201D0012009E094F884304BB141
:102C9000012B09D0022B09D0012000E0022010BD39
:102CA0000220FCE70020FAE70120F8E70220F6E71F
:102CB0005553425308B5D0F87433DB691AB1012A71
:102CC00005D0022002E0D97900F0C4FF08BD99794F
:102CD00000F0C0FFFAE708B521220274FF22427417
:102CE000002141828182C1820A4600F009FF08BDAD
:102CF00008B5A1220274FE2242740022428282821E
:102D00000122C28200F0FCFE08BD0000D0F874333E
:102D1000DB69054A5A65054A9A65012283F8502005
:102D200083F85220002070475553424350403020D2
:102D300070B582B00546D0F87433DC6994F8503031
:102D4000013B0A2B00F22181DFE813F00B001B008E
:102D5000450050007C008800BC00C700E100F30083
:102D6000150184F86110022384F85030637901263C
:102D700000961F2204F1540100F0B5FF304602B066
:102D800070BD617903F056FA012805D0022818D0E9
:102D900005281BD00126F1E7E36D6BB194F9603093
:102DA000002B04DB052384F850300126E6E70323DB
:102DB00084F850300126E1E7072384F850300126DB
:102DC000DCE7012384F850301E46D7E70A2384F855
:102DD00050300126D2E723796289D4F88C1000F0B4
:102DE00098FF042384F850300126C7E7217903F0C7
:102DF00021FA012803D005281FD00126BEE7E36D84
:102E0000628993420DD9D4F88C101144C4F88C1007
:102E10009B1AE365E36D3BB9072384F85030012624
:102E2000ACE70023E365F5E723796289D4F88C10D9
:102E3000284600F06EFF0126A0E7092384F85030F1
:102E400001269BE763792289D4F88C10012600962D
:102E500000F049FF062384F850308FE7617903F0D2
:102E6000E9F9012805D0022822D0052825D001261D
:102E700084E7E36D228993420DD9D4F88C10114474
:102E8000C4F88C109B1AE365E36D3BB9072384F803
:102E90005030012672E70023E365F5E76379228964
:102EA000D4F88C1001260096284600F01CFF65E738
:102EB000052384F85030012660E70A2384F8503057
:102EC00001265BE723790D2204F1780100F021FF50
:102ED000082384F85030012650E7217903F0AAF93D
:102EE000012803D005280DD0012647E7012384F8E7
:102EF000503084F852302846FFF7B4FE002846D1FF
:102F000000263BE7092384F85030012636E70022EB
:102F1000FFF7D0FE18B1042806D001262EE70723BC
:102F200084F85030012629E70B2384F8503001261D
:102F300024E70122FFF7BEFE18B1042816D00126AF
:102F40001CE76179284603F09AF9C0F10102D2B278
:102F50006179284603F07AF900222179284603F0A6
:102F600075F9092384F85030012607E70B2384F80C
:102F70005030012602E7FFF7AEFE064600287FF438
:102F8000FDAE012284F85020F8E60126F6E602267E
:102F9000F4E608B5D0F87433DB6993F85220012ABF
:102FA00003D0022A19D0022016E00022DA6583F845
:102FB00060200A2183F86210C3F86320C3F86720F9
:102FC000C3F86B20C3F86F2083F86320012083F8D7
:102FD0005000022283F8522008BDFFF7A9FEFBE74C
:102FE00038B5D0F87433DC6994F85230012B03D033
:102FF000022B21D001231DE00823E365802384F800
:1030000060300A2384F862300023C4F86330C4F8C7
:103010006730C4F86B30C4F86F30252384F8633010
:10302000012384F85030022284F8522004F1100267
:10303000C4F88C20184638BD1546FFF779FE0346C4
:103040000028F7D1D4F88C10CA78887842EA002298
:10305000487842EA0042097842EA01622A60D4F8DC
:103060008C10CA79897942EA0122AA80E2E7F8B590
:10307000D0F87433DC6994F85230012B03D0022B62
:1030800026D0022522E02422E265802384F86030E5
:103090000A2384F862300023C4F86930122084F8CF
:1030A0006300490184F8641084F8653084F8663060
:1030B00084F8672084F86830012584F85050022392
:1030C00084F8523004F11003C4F88C302846F8BD5F
:1030D0001646FFF72DFE05460028F7D122220021D3
:1030E000304603F0CBF9D4F88C301B7803F01F0383
:1030F0007370D4F88C301B785B093370D4F88C3043
:103100005B78DB09B370D4F88C3053F8082F5B6818
:10311000C6F80320C6F80730D4F88C3053F8107F77
:1031200058689968DB68F76030617161B361D4F801
:103130008C301B6AC6F81D30C8E738B5D0F8743338
:10314000DC6994F85230012B03D0022B2AD00223E1
:1031500026E00E22E265802384F860300A2384F89A
:1031600062300023C4F86930C4F86D30A4F87130BF
:10317000032084F86300490184F8641084F8653002
:1031800084F8663084F8672084F86830012384F876
:103190005030022284F8522004F11002C4F88C202E
:1031A000184638BD1546FFF7C3FD03460028F7D182
:1031B000D4F88C20927802F00F022A70D4F88C2078
:1031C000127B6A70D4F88C20527BAA70E8E738B57D
:1031D000D0F87443E46994F85250012D03D0022DC5
:1031E00034D0022031E004994902E165002184F8DD
:1031F00060100A2084F86200C4F86310C4F86710F5
:10320000C4F86B10C4F86F102A2184F86310C2F35D
:10321000076184F86510C2F3074184F86610C2F3B1
:10322000072184F8671084F86820049AC2F3072203
:1032300084F86A20049A84F86B20012084F85000F6
:10324000022284F85220C4F88C3038BDFFF770FD9C
:10325000FBE738B5D0F87443E46994F85250012D77
:1032600003D0022D35D0022032E004994902E165F5
:10327000802184F860100A2184F862100021C4F8CB
:103280006310C4F86710C4F86B10C4F86F102821DD
:1032900084F86310C2F3076184F86510C2F3074134
:1032A00084F86610C2F3072184F8671084F8682058
:1032B000049AC2F3072284F86A20049A84F86B20E7
:1032C000012084F85000022284F85220C4F88C3087
:1032D00038BDFFF72DFDFBE7002306E003F1DE021A
:1032E00000EB82020021516001330E2BF6D900233E
:1032F00004E0C218002182F81C110133B3F5007FED
:10330000F7D300230370437001228270C0F8B833F2
:10331000027640218171437680F81C3380F81D23AA
:103320001846704708B50378DBB20A2B00D008BDF9
:10333000D0F87433002BFAD09B699847F7E770B543
:1033400084B004464378072B00F2A480DFE803F042
:10335000042C355E67708192082100F00FFC18B1D3
:103360000125284604B070BD94F82723A2710125D9
:10337000657094F81C33217902920026019694F826
:103380001D2300928022204600F0E6FC94F81C33B6
:103390006179A2790292019694F81D230092324637
:1033A000204600F0D9FCDCE7122100F0E7FB002802
:1033B00072D1022363700125D3E7012100F028FCBC
:1033C00008B10125CDE7022002F06EFF012584F847
:1033D0001C53032363702179A3790293002601967D
:1033E00094F81D3300932B468022204600F0B4FC55
:1033F00094F81C336179A2790292019694F81D2306
:1034000000923246204600F0A7FCAAE7092100F00E
:10341000CEFB002842D1042363700125A1E7B0F858
:10342000341300F0C4FBD8BB05236370012598E773
:1034300090F82E1319B906234370012591E7FF2355
:1034400000F58E7200F0CCFB60BB06236370012593
:1034500087E790F82F1319B907234370012580E7F8
:10346000FF2300F58E7200F0BBFBE8B90723637001
:10347000012576E790F8301309B9002571E7FF239D
:1034800000F58E7200F0ACFB054600283FF469AFF2
:10349000012566E7012564E7012562E7012560E76C
:1034A00001255EE701255CE701255AE798B138B5AB
:1034B00004460D4680F8BC230023C0F87433C0F8DE
:1034C0007833FFF709FF0DB1C4F8C453204602F06A
:1034D00003FE002038BD022070470A4651B1D0F8E3
:1034E00078334BB9591CC0F87813DC3340F82320EB
:1034F00000207047022070470220704790F8363352
:103500008B4203D980F81F130020704702207047B8
:1035100070B400240AE01A2505FB060696F843530A
:103520009D4219D0FF2B17D0013464B2012C15DC59
:1035300026461A2505FB040595F841538D4201D016
:10354000FF29F1D11A2505FB060595F8425395424E
:10355000E1D0FF2AE8D1DEE7E0B200E0FF2070BC56
:10356000704710B5044602F0E5FD0121204602F047
:1035700067FE002010BD30B587B0044602238DF8E9
:1035800017300378DBB20A2B43D8DFE803F006429A
:1035900013B0424598565F68A90090F81E33002B7F
:1035A00037D001230370C82002F07EFE204602F0CF
:1035B000EBFD2EE0642002F077FE204602F0D6FDFF
:1035C00084F81D03052323700021204600F0D9FB59
:1035D00060718021204600F0D4FB0146207194F8F0
:1035E0001C33A27902920025019594F81D230092C4
:1035F0008022204600F0B0FB94F81C336179A27958
:103600000292019594F81D2300922A46204600F06C
:10361000A3FB002007B030BDFFF791FE0028F8D1D2
:10362000002384F81F3394F83133012B02D0072391
:103630002370EEE708232370EBE7D0F8C433002BA8
:10364000E7D00121984708232370E2E790F8371369
:1036500000F0EFFA0028DCD109232370D9E7D0F875
:103660007833002BD5D00023C0F8743373B1D4F86D
:1036700074330BB39B6820469847D0B90623237058
:10368000D4F8C433032120469847C2E703F1DC0293
:1036900054F82220117994F84123914202D0013349
:1036A000DBB2E3E703F1DC0254F82220C4F8742310
:1036B000F5E70C232370ACE70C232370A9E7D0F8BF
:1036C000743353B11B6998478DF817009DF8173074
:1036D000002B9ED10A2323709BE70C23037098E7ED
:1036E000D0F87433002B94D05B69984791E7FFF7CB
:1036F000F3FDD4F87433002B8BD0DB682046984759
:103700000023C4F8743384E7C0F8B813704708B5D1
:10371000D0F8B8330133C0F8B833FFF703FE08BD63
:1037200008B503784BB9012380F81E33D0F8C433B1
:103730000BB104219847002008BD0378DBB2012BB0
:10374000F9D102230370F6E710B5044602F000FD3C
:103750002179204600F027FB6179204600F023FB09
:10376000002384F81E33D4F8C43313B10521204656
:103770009847204602F0DEFC03232370002010BD92
:1037800010B40B7803704B7843708B78CC7803EBD4
:10379000042343800B7903714B7943718B798371D7
:1037A000CB79C371082A16D90B7A4A7A03EB022324
:1037B00003818B7ACA7A03EB022343810B7B4A7B1A
:1037C00003EB022383818B7B8373CB7BC3730B7CE3
:1037D00003744B7C43745DF8044B70470B780370A3
:1037E0004B7843708B788370CB78C3700B790371FF
:1037F0004B7943718B798371CB79C3710B7A0372E7
:1038000070470B7803704B7843708B788370CB785C
:10381000C3700B794A7903EB022383808B79837120
:1038200070474378032B00D070470378023B9A42DD
:10383000A8BF1A4692B2002393420DD210B4C41806
:10384000A47801F8014B02339BB29342F7D30023D3
:103850000B705DF8044B704700230B70704730B558
:1038600083B00446037E013B0A2B00F2D880DFE8D8
:1038700003F00610354154627E8A9DABC200427946
:1038800000F1100100F0F8F902232376012003B0C3
:1038900030BD417902F0CEFC012803D0042819D0B4
:1038A0000120F4E7237CE28A4AB113F0800F03D1B0
:1038B000052323760120EAE703232376E7E713F0C5
:1038C000800F03D1072323760120E0E70923237625
:1038D0000120DCE70B2323760120D8E7D0F8B833AA
:1038E000C38103798289816800F0EDF9042323768E
:1038F0000120CCE7017902F09DFC012806D00528C3
:1039000000F08F80042804D00120C0E7092323762B
:10391000F5E70B2323760120B9E743798289012556
:103920000095816800F0B9F9D4F8B833E381062333
:1039300023762846ABE7417902F07CFC012807D0CA
:10394000052808D002280AD004280CD001209EE7C0
:10395000072323769BE70C232376032097E7052391
:103960002376012093E70B23237602208FE7037948
:103970000022114600F0A7F9D4F8B833E3810823F8
:103980002376012083E7017902F054FC012805D059
:10399000042807D0052846D0012078E70D23237698
:1039A000002074E70B232376012070E7437901257B
:1039B00000950022114600F070F9D4F8B833E38185
:1039C0000A232376284662E7417902F033FC012876
:1039D00005D0022807D0042809D0012057E70D237D
:1039E0002376002053E70923237601204FE70B239A
:1039F000237601204BE7437E0133DBB24376022B73
:103A000007D9D0F8C43306219847002363760220F3
:103A10003DE702F09DFB01202076A07037E70120F2
:103A200035E7032033E7032031E703780A8813449E
:103A30000B800378184470472DE9F04383B00C469F
:103A40000B7803704B7843708B78C97803EB0123B4
:103A500043802379037163794371A3798371E37997
:103A6000C371237A0372092A47D905460923ADF8A1
:103A700006300026012E40DC6A88BDF806309A42E6
:103A80003BD90DF106012046FFF7CFFF04464378EE
:103A9000042BEFD1B1461A2000FB06F00830284471
:103AA00021460230FFF79AFE0027B8461A2303FB8F
:103AB00009539B7B9F421DDA6A88BDF806309A4203
:103AC00018D90DF106012046FFF7AFFF04464378F1
:103AD000052BEAD108F101081A2000FB09F000EBE0
:103AE000C8000830284421460430FFF78AFE013719
:103AF0007FB2DAE7013676B2BCE703B0BDE8F08307
:103B00008378012B03D0022B09D0012305E08160CB
:103B1000828101230376022282701846704710B515
:103B20000446FFF79CFE034620B1022806D101227D
:103B3000A27003E00122A27000222276184610BD76
:103B400038B5BDF810508478012C04D02A461946A7
:103B5000FFF7D6FF38BD61F07F040474062141747D
:103B6000428202F47F44B4F5407F03D00022828277
:103B7000C582EBE740F209428282F9E7F0B583B0F3
:103B8000044600F58E750E4600912B464FF4807268
:103B90000021FFF7D5FF074610B1384603B0F0BD4E
:103BA0003246294604F54870FFF7EAFDF5E7F0B51F
:103BB00083B004460E4600F11C0500912B464FF4DD
:103BC00000720021FFF7BCFF074610B1384603B072
:103BD000F0BD3246294604F23230FFF72DFFF5E7FB
:103BE000F0B583B017461D4600F58E74009323464A
:103BF00041F440720021FFF7A3FF064610B13046A2
:103C000003B0F0BD2A4639462046FFF70AFEF6E724
:103C100008B58378012B04D000221146FFF770FF0E
:103C200008BD002303740522427441828382C3824B
:103C3000F2E708B58378012B04D000221146FFF784
:103C40005FFF08BD0023037409224274418283820E
:103C5000C382F2E708B58378012B04D00022114615
:103C6000FFF74EFF08BD02230374012343740023B2
:103C700043828182C382F1E730B585B015460024C6
:103C80000394082302930191009423462246294677
:103C900002F0B5FA204605B030BD30B585B00C460F
:103CA00019469DF8203090F81D5305B10023039369
:103CB000029201940123009300231A4602F09FFA16
:103CC000002005B030BD30B585B01D4600240394FA
:103CD00002920191012200922346294602F08FFAB6
:103CE000204605B030BD30B585B00C4619469DF86C
:103CF000203090F81D5305B10023039302920194E4
:103D0000012300930223002202F079FA002005B07B
:103D100030BD30B585B01D46002403940292019158
:103D2000012200920223294602F069FA204605B0DA
:103D300030BD00230A2B0CD803F1DE0200EB820217
:103D4000526812F4004F02D00133DBB2F2E798B2AE
:103D500070474FF6FF70704710B584B0BDF8204033
:103D600002949DF81C4001949DF81840009402F0C4
:103D70001FFA002004B010BD08B502F032FA00208E
:103D800008BD38B504460D46FFF7D3FF4FF6FF7365
:103D9000984206D045F4004500F1DE0304EB8304AD
:103DA0006560C0B238BD0A2906D8DE3100EB81015A
:103DB0004B68C3F30E034B600020704708B5044BFB
:103DC00003EB8002526852680344187A904708BD9A
:103DD000F000002008B5084B1B5C53B9064B0122CC
:103DE0001A5403EB8002526812681844007A904714
:103DF00008BD0020FCE700BFF000002038B5044CEF
:103E000004EB80056D68AD680444207AA84738BD8E
:103E1000F000002038B5044C04EB80056D68ED68B7
:103E20000444207AA84738BDF000002010B5044BA8
:103E300003EB8004646824690344187AA04710BD2A
:103E4000F00000204278007840EA02207047C278F3
:103E5000837843EA0222437843EA0223007840EA67
:103E6000032070470170090A417070470170C1F367
:103E700007234370C1F307438370090EC170704775
:103E800013462AB10A78027001300131013BF9D1A1
:103E9000704701700130013AFBD1704730B4451CC6
:103EA000037808781B1A013A04D04C1C2846214696
:103EB000002BF4D0184630BC704700E00130037886
:103EC0000BB18B42FAD118467047000030B4002580
:103ED0002B4601E001250133012B15D81A01174C9F
:103EE000A258002AF6D00468A242F4D1134A02EB89
:103EF0000312546882689442EDD1104A02EB031217
:103F0000946842699442E6D1022B0AD0A1B90B4AC7
:103F100002EB03139B89B3F5807F07D0002030BCF0
:103F200070472DB9022905D10020F8E71020F6E7E7
:103F30000020F4E71220F2E71020F0E7C80000208C
:103F4000002000E00130012804D80301034AD358BF
:103F5000002BF7D1023818BF01207047C80000209D
:103F600070B4002300E00133012B13D81A01244C54
:103F7000A45802689442F6D1214A02EB0312546815
:103F800082689442EFD11E4A02EB031294684269A0
:103F90009442E8D1022B29D021B1194A02EB031235
:103FA000928952BB21BB164A02EB0312918901315F
:103FB00089B2134A02EB03129181581C70BC7047FE
:103FC0000133012B04D81A010D4CA258002AF7D155
:103FD000022B10D006680A4D1C012A192E51846844
:103FE00054604069906000209081D5E70023E8E7A5
:103FF0004FF48071DDE70020E0E70020DEE700BF3E
:10400000C8000020002303E05DF8044B7047013333
:10401000012B11D81A0109498A588242F7D110B4EC
:104020001A0100248C500133012BEDD81A010349E9
:104030008A588242F7D1F3E7704700BFC8000020DA
:1040400002398369023B8B4204D94389C06A01FB70
:10405000030070470020704710B40468C26A04323D
:10406000A389B1FBF3F16389B1FBF3F1106830B1BF
:10407000814202D3091A0832F8E7506808445DF813
:10408000044B704770B506460D4601F11A00FFF764
:10409000D9FE3378032B00D070BD044605F114001F
:1040A000FFF7D0FE44EA0040F6E770B506460C463E
:1040B000154691B204F11A00FFF7D4FE3378032BB2
:1040C00000D070BD290C04F11400FFF7CBFEF8E717
:1040D0002DE9F84F82468B460F6800F124090B2228
:1040E00020214846FFF7D5FE002633464FF008084A
:1040F0002CE001357B5D2F2BFBD05C2BF9D03D44B0
:10410000CBF80050002E43D09AF82430E52B35D060
:10411000202C37D804238AF82F30002028E00826E6
:104120004FF00B0811E014F0800F23D121461948FD
:10413000FFF7C3FE50BBA4F16103DBB2192B01D81A
:10414000203CE4B209F8064001362B465D1CFC5CBD
:10415000202CD4D92F2CCDD05C2CCBD02E2C01D020
:10416000B045E0D8B8F10B0F0ED02E2CD7D00620DA
:10417000BDE8F88F803C084B1C5DD7E705238AF823
:104180002430C5E70023C6E70620F1E70620EFE765
:104190000620EDE784880008C86C0008016809B1B2
:1041A0000A4603E04FF0FF3308E001321378202B7A
:1041B00001D93A2BF9D13A2B02D000231846704787
:1041C00010B44C1C0B78303B092B08D8A24209D103
:1041D0005BB90132026018465DF8044B70474FF03E
:1041E000FF33F8E74FF0FF33F5E74FF0FF33F2E727
:1041F00038B50D4640B1044603682BB11A781AB1A0
:10420000D9888288914203D000232B60092038BDD1
:104210005878FFF7D3FD10F0010FF5D123682B601C
:104220000020F4E7F8B5C3780BB90020F8BD0446C8
:10423000056B00F1340701232A4639464078FFF721
:10424000E9FDA8B90023E370636AEB1AE2699342BF
:1042500010D2A678012E09D9E3691D4401232A460C
:1042600039466078FFF7D6FD013EF3E70020DDE731
:104270000120DBE70020D9E770B5036B8B4212D039
:1042800004460D46FFF7CEFF064668B901232A46CD
:1042900004F134016078FFF7B1FD10B101264FF051
:1042A000FF35256300E00026304670BD10B504469A
:1042B0000023C3704FF0FF330363FFF7DDFF18BB2C
:1042C00004F23220FFF7BEFD4AF6552398421DD175
:1042D00094F83430E92B05D0636B03F0FF130F4AD9
:1042E000934215D104F16A00FFF7B1FD20F07F4041
:1042F0000B4B98420ED004F18600FFF7A8FD094B46
:10430000984209D1002002E0042000E0032010BD03
:104310000220FCE70020FAE70220F8E7EB0090001B
:1043200046415400464154332DE9F04F87B00F46C3
:10433000164600230B60FFF731FF051EC0F26781B0
:10434000C94B03EB85031C6A002C00F064813C60C0
:1043500006F0FE06237873B16078FFF72FFD10F0AA
:10436000010F08D1002E00F0588110F0040F40F02A
:10437000568100204CE100232370E8B26070FFF703
:1043800029FD10F0010F40F04C811EB110F0040F18
:1043900040F0498104F10C0202216078FFF746FDEC
:1043A000002840F04281A289A2F500739BB2B3F5C8
:1043B000606F00F23C81531E1A4201D0012027E1B8
:1043C00000212046FFF772FF022800F0A0800025A0
:1043D000042800F02E81012800F22D8104F13F0015
:1043E000FFF730FDA789B84240F0278104F14A0069
:1043F000FFF728FD804620B904F15800FFF727FD9C
:104400008046C4F81C8094F84460A670731EDBB22A
:10441000012B00F2148108FB06F694F84190A4F8F1
:104420000A90B9F1000F00F00C8109F1FF3319EA8D
:10443000030F40F0088104F14500FFF703FD8246B9
:1044400020814FEA571BB0FBFBF30BFB13039BB21E
:10445000002B40F0FA8004F14700FFF7F3FC0190D5
:1044600020B904F15400FFF7F2FC019004F142007E
:10447000FFF7E8FC0146002800F0E9808219BAFB4A
:10448000FBFB5A44019B9342C0F0E3809B1AB3FBB1
:10449000F9F9B9F1000F00F0DE804FF6F573994598
:1044A0004DD94FF0030B40F6F573994501D84FF005
:1044B000010B09F10209C4F8189025624B196362D7
:1044C0002A44E262BBF1030F3CD0BAF1000F00F0C6
:1044D000C8803344A362BBF1020F68D14FEA490997
:1044E00042E0002006AB03EB850343F8100C0135D6
:1044F000032D0ED804F134002B0103F5DF731844AB
:104500000379002BEDD00830FFF7A1FCEAE7002586
:10451000EEE700260AE029462046FFF7C7FE0128FD
:104520007FF656AF0136032E3FF652AF06AB03EBD4
:10453000860353F8105C002DEDD10320F2E74FF015
:10454000020BB0E704F15E00FFF77CFC002840F0AE
:104550008480BAF1000F40F0828004F16000FFF720
:1045600076FCA0624FEA8909B94409F1FF33B3FB35
:10457000F7F747457ED84FF0FF336361236180230F
:104580002371BBF1030F05D104F16400FFF75AFC5E
:10459000012813D084F800B0334A938C01339BB2C6
:1045A0009384E3802046FFF72DFD002030E009EBE7
:1045B000490309F0010909EB5309D5E7691C2046B5
:1045C000FFF75AFE0028E5D10023237104F23220C0
:1045D000FFF738FC4AF655239842DBD104F134004A
:1045E000FFF735FC214B9842D4D104F50670FFF754
:1045F0002EFC1F4B9842CDD104F50770FFF727FC26
:10460000606104F50870FFF722FC2061C2E70B200F
:1046100007B0BDE8F08F0C20FAE70020F8E70A2089
:10462000F6E70320F4E70A20F2E70120F0E7012093
:10463000EEE70120ECE70D20EAE70D20E8E70D208A
:10464000E6E70D20E4E70D20E2E70D20E0E70D208E
:10465000DEE70D20DCE70D20DAE70D20D8E70D209E
:10466000D6E70D20D4E700BFC800002052526141B8
:10467000727241610D20CBE72DE9F047012940F22C
:10468000928083698B4240F2908017460D46044623
:104690000378022B4DD0032B64D0012B01D00226CE
:1046A00084E001EB5108416A8389B8FBF3F31944B4
:1046B000FFF7E2FD0646002878D104F1340908F13D
:1046C000010AA289B8FBF2F302FB138815F0010579
:1046D00024D019F9083003F00F033A0102F47F6285
:1046E0001343DBB209F808300123E370616AA38940
:1046F000BAFBF3F319442046FFF7BEFD0646002837
:1047000054D1A289BAFBF2F302FB13AA45B1C7F355
:10471000071209F80A200123E37047E0FBB2E1E742
:1047200019F90A2022F00F02C7F303273A43D2B245
:10473000EFE7416A83895B08B5FBF3F31944FFF7A0
:104740009BFD064690BB04F134006D00A289B5FBC9
:10475000F2F302FB1355B9B22844FFF783FB0123A0
:10476000E37023E0416A83899B08B5FBF3F31944A6
:10477000FFF782FD0646C8B927F0704704F13403FD
:10478000A900A289B1FBF2F502FB15151D442846CC
:10479000FFF75DFB00F0704139432846FFF766FBE9
:1047A0000123E37002E0022600E002263046BDE865
:1047B000F087F8B5066801296AD9B3698B4269D9CF
:1047C0000C463378022B35D0032B49D0012B01D076
:1047D00001205EE001EB5105716AB389B5FBF3F38B
:1047E00019443046FFF748FD002855D16F1CB389A6
:1047F000B5FBF3F203FB1255354495F83450716A5A
:10480000B7FBF3F319443046FFF736FD002846D1D5
:10481000B289B7FBF2F302FB13773E4496F83400FB
:1048200045EA002014F0010F01D0000931E0C0F387
:104830000B002EE0716AB3895B08B4FBF3F31944F3
:104840003046FFF719FD68BB06F134006100B289FC
:10485000B1FBF2F302FB13110844FFF7F3FA18E07F
:10486000716AB3899B08B4FBF3F319443046FFF730
:1048700003FDD0B906F13400A100B389B1FBF3F414
:1048800003FB14110844FFF7E2FA20F0704000E047
:104890000120F8BD0120FCE74FF0FF30F9E74FF0B1
:1048A000FF30F6E74FF0FF30F3E74FF0FF30F0E76F
:1048B0002DE9F0410768B1F5001F43D206460D46C9
:1048C00011F01F0F41D1716184681CB93B78022B34
:1048D00000D9BC6ACCB93B89B3EB551F37D9BB6A49
:1048E000F361B461F369002B39D0BA89B5FBF2F2F8
:1048F0001344F36107F13403B989B5FBF1F201FB0D
:1049000012551D44356200201DE07B89B7F80C80EC
:1049100008FB03F845450FD321463046FFF749FF12
:104920000446B0F1FF3F14D0012814D9BB6983427B
:1049300013D9A5EB0805EDE721463846FFF780FBC4
:10494000F061CEE70220BDE8F0810220FBE7022003
:10495000F9E70120F7E70220F5E70220F3E702205C
:10496000F1E72DE9F04107460668884631B9356917
:104970008DB1B369AB420FD801250DE0FFF719FFE8
:104980000346012847D9B0F1FF3F49D0B2698242BE
:1049900046D8454600E001252C460CE02146384625
:1049A000FFF707FF034670B1012839D0B0F1FF3F90
:1049B00036D0AC4233D00134B369A342EED8012DD6
:1049C0002BD90224EAE74FF0FF3221463046FFF7A9
:1049D00053FE034610B9B8F1000F0ED1A3B93461EC
:1049E0007269B369023B9A4201D8013A7261337924
:1049F00043F001033371234612E02246414630461C
:104A0000FFF73AFE0346E9E7012B01D0012307E057
:104A10004FF0FF3304E0012302E0002300E0002315
:104A20001846BDE8F081F8B50E46056801292ED973
:104A300007461146AB69B3422CD952B14FF0FF3251
:104A40002846FFF719FE844618B125E02646A24203
:104A500022D931463846FFF7ACFE0446F0B10128B2
:104A60001FD0B0F1FF3F1FD0002231462846FFF78C
:104A700003FE844680B96B69AA69911E8B42E5D218
:104A800001336B612B7943F001032B71DEE74FF0AB
:104A9000020C01E04FF0020C6046F8BD4FF0000C34
:104AA000FAE74FF0020CF7E74FF0010CF4E72DE9BD
:104AB000F04106684569C369002B72D02035B5F511
:104AC000001F70D20F460446B189B5FBF1F201FB1D
:104AD00012523AB90133C3618169A1B93389B3EB89
:104AE000551F0CD9656106F13403B189B5FBF1F2AC
:104AF00001FB12551D4425620020BDE8F081002312
:104B0000C3610420F9E7B289B5FBF2F27389013B76
:104B10001A42E7D1FFF74DFE8046012845D9B0F192
:104B2000FF3F44D0B369834233D88FB1A169204697
:104B3000FFF717FF804600283BD001283BD0B0F19B
:104B4000FF3F3AD03046FFF76DFB28B10120D4E794
:104B50000023E3610420D0E7B289002106F134008C
:104B6000FFF797F941463046FFF76AFA30630027AE
:104B700073899F420AD20123F3703046FFF752FB3C
:104B8000E8B90137336B01333363F1E7336BDB1B78
:104B90003363C4F8188041463046FFF751FAE061AC
:104BA000A0E70420A9E70420A7E70220A5E7012049
:104BB000A3E70720A1E702209FE701209DE701204E
:104BC0009BE770B5044606680021FFF771FE0546B5
:104BD00040B1284670BD00212046FFF768FF05461A
:104BE0000028F6D1E1693046FFF746FB054600286C
:104BF000EFD1206A03787BB1C37A03F03F03A3713E
:104C0000C37A13F0080FE6D10B2204F12401FFF759
:104C100045F90028DFD1DCE70425DAE730B583B0B9
:104C200004460191056801E001330193019B1A7864
:104C30002F2AF9D05C2AF7D00022A2601B781F2B04
:104C400021D901A92046FFF743FA034618BB2046A5
:104C5000FFF7B7FF94F82F200346F8B912F0040FBE
:104C600019D1A37913F0100F1FD005F13401606939
:104C7000AA89B0FBF2F302FB130319442846FFF79D
:104C800001FAA060DDE7802384F82F30114620462A
:104C9000FFF70EFE0346184603B030BD0428FAD1D4
:104CA00012F0040FF7D10523F5E70523F3E7F8B574
:104CB00004460F4606680021FFF7FAFD0346C0B917
:104CC000002508E00135BD4213D001212046FFF741
:104CD000EEFE034668B9E1693046FFF7CDFA0346B8
:104CE00038B9226A1278E52AECD0002AEAD00025E9
:104CF000EBE7042B01D01846F8BD0723FBE770B59E
:104D0000044606680121FFF7D2FF054608B1284690
:104D100070BDE1693046FFF7AFFA05460028F6D1CD
:104D200020220021206AFFF7B4F80B2204F12401AD
:104D3000206AFFF7A5F80123F370E8E770B584B0A7
:104D400001900091164604A840F8041DFFF726FACA
:104D5000041E1EDB114B03EB84031D6A25B128469C
:104D6000FFF750F900232B70019B0BB100221A7042
:104D7000019B0A4800EB8400036263B1012E02D05C
:104D8000002004B070BD002201A96846FFF7CCFAEC
:104D9000F7E70B20F5E70020F3E700BFC80000208D
:104DA0002DE9F04391B00191002800F012810546F1
:104DB000164602F03F073A4603A901A8FFF7B4FAE6
:104DC000044630B10CB100232B60204611B0BDE881
:104DD000F083039B0493019904A8FFF71FFF044687
:104DE00060B99DF93F30002B51DB37F0010314BF50
:104DF0000121002104A8FFF769F8044616F01C0FF2
:104E00005BD0002C4FD0042C43D047F00807002C77
:104E100062D117F0080F5FD000F0EEF906460146A8
:104E20000C980E30FFF722F831460C981630FFF739
:104E30001DF80C9B2022DA72039EDDF8308041467B
:104E40003046FFF71FF98146002241463046FFF702
:104E50002CF900210C981C30FFF708F8039B012265
:104E6000DA70B9F1000F37D0039B1E6B0022494660
:104E700004A8FFF7D8FD044670BB31460398FFF73E
:104E8000FBF9044609F1FF33039A136124E0062479
:104E9000B4E7FFF755F808B91224B6E704A8FFF7FE
:104EA0002EFF0446B1E79DF8163013F0110F12D112
:104EB00016F0040FABD008240EE06CB99DF8163044
:104EC00013F0100F4ED116F0020F05D013F0010FA2
:104ED00002D0072416E00724A4B917F0080F01D068
:104EE00047F04007039B1B6B6B620C9BAB6237F078
:104EF000010314BF0121002104A8FFF731F8286144
:104F0000002864D0002C7FF45DAF039EDDF8308074
:104F100041463046FFF7B6F8A86008F11C00FEF7DE
:104F200096FFE8600021E9622E60F388AB802F7560
:104F300069752962A96105F130084FF48052404635
:104F4000FEF7A7FF17F0200F3FF43CAFEE68002EEE
:104F50003FF438AFAE61039B5A899F8907FB02F784
:104F6000A96805E00424CDE7B1F1FF3F0BD0F61BA3
:104F70005CB9BE4209D92846FFF71BFC014601284F
:104F8000F2D80224F0E70124F1E7E961002C7FF474
:104F900019AF039FB7F80C90B6FBF9F309FB136345
:104FA000002B3FF40FAF3846FFF74AF808B9022448
:104FB00009E7B6FBF9F202442A62012341467878F8
:104FC000FEF71CFF00283FF4FDAE0124FBE602249F
:104FD000F8E60924F9E62DE9F04F85B00446894644
:104FE000154698460023C8F80030019003A9FFF742
:104FF000FFF80746002840F0AE80677D002F40F0A4
:10500000AA80237D13F0010F00F0BC80E668A3693D
:10501000F61AAE4260D32E465EE0E36A1BB120462C
:10502000FFF71AF86CE0E1690198FFF7C2FB67E04F
:10503000022767758FE0012767758CE00227677587
:1050400089E094F91430002B04DB039B9B890AFB55
:1050500003FA36E0206A009BC01A5045F5D2039B44
:105060009B891A4604F1300103FB0090FEF708FF0C
:10507000EBE7226A009B9A420DD094F91430002B82
:105080006DDB0123009A04F1300103984078FEF7AC
:10509000B5FE002873D1009B2362039BB3F80CA0DC
:1050A000A169B1FBFAF30AFB1313AAEB030A5645F5
:1050B00000D2B24604F13001524619444846FEF788
:1050C000DFFED144A3695344A361D8F800305344B0
:1050D000C8F80030A6EB0A06002E3CD0A169039A5E
:1050E0009589B1FBF5F305FB1313002BD5D1B1FB6B
:1050F000F5F55389013B1D4008D100298DD1A068E9
:10510000012895D9B0F1FF3F95D0E061DDF80CB0F2
:10511000E1695846FEF794FF00288FD02B180093C2
:10512000BBF80CA0B6FBFAFABAF1000FA1D005EB60
:105130000A03BBF80A20934201D9A2EB050A5346A1
:10514000009A49469BF80100FEF758FE00283FF4FC
:1051500078AF01276775384605B0BDE8F08F0123A9
:1051600004F130019BF80100FEF754FE20B9237DC5
:1051700003F07F03237584E701276775EBE70127B9
:105180006775E8E70727E6E7104B5B7ADBB930B4D1
:105190000E4B5D7AEDB200245C555D7A03EB85051C
:1051A0006860587A184402725A7AD2B2501CC0B25F
:1051B000587230320A703A234B702F238B70CC70A8
:1051C000204630BC70470120704700BFF00000202F
:1051D00008B50022FFF7D8FF08BD000008B5034955
:1051E0000348FFF7F5FF034B187008BD8801002046
:1051F0006C880008F021002000207047F0B40026E1
:10520000334611E014F0200F3ED104F01F0405F0E6
:105210003F0505EB8414A4F582653F2D10D8503C62
:105220008C55013301360133934228DAC45C34B320
:105230005D1C455D14F0800FE4D18C550136F2E71A
:10524000A4F180057F2D01D88C55EAE7A4F2024530
:10525000012D07D87E348C55E3E70C4C14F835400B
:105260008C55DEE700253C2D07DC084F07EBC50712
:105270007F68A742F1D00135F5E7002002E0002366
:105280008B550120F0BC70470020FBE7686D0008DB
:1052900082B0ADF80600BDF806309BB2014A13801B
:1052A00002B0704740000020014B5860704700BFBB
:1052B000FC00002002440B44B0F5A07F27D292B23C
:1052C000013A92B29BB2013B9BB2EF2921D8B2F5D1
:1052D000A07F20D2EF2B20D870B44FF0C0452A24F5
:1052E0002C80060A0E4C2680C0B22080100A208036
:1052F000D2B222802B222A800A0A2280C9B22180BF
:105300001A0A2280DBB22380002070BC7047012083
:10531000704701207047012070470120704700BF8F
:1053200000000260F8B5154694783E4B5A68537AEF
:105330005B00DBB21C44E4B2137A2246FFF7BAFFEB
:1053400001286DD04FF0C0432C221A806E782B7844
:10535000F61AF6B20136F6B2002008E0314B1B888F
:105360009BB231490B8001329442F7D801302B783F
:10537000834201D90022F7E700203AE0294B1B883D
:105380009BB229490B800132264B5B685B7A9342C2
:10539000F4D8002205E0234B1B889BB222490B80E6
:1053A0000132AB78934216D900FB032369680B44A2
:1053B0005F0903F01F03012101FA03F3194949684A
:1053C000096851F827100B42E5D0184B1B889BB297
:1053D00015490B80E4E7002205E0124B1B889BB2C5
:1053E00011490B8001320F4B5B685B7A9342F4D812
:1053F0000130864201D90022C6E76878013008E012
:10540000084B1B889BB208490B8001329442F7D8A5
:105410000130044B5B681B7A834201D90022F5E717
:10542000F8BD00BFFC00002000000260400000202A
:105430001F2A00D8704708B5054B5B685B6802F10E
:105440000052203A03EBC202FFF76CFF08BD00BF19
:10545000FC0000202DE9F84306460F46144610468E
:10546000FBF736F8184D024629462046FFF7C6FEE0
:105470002846FBF72DF81FFA80F80024A1462A7869
:1054800002B309EB0600394680B2FFF7D1FF0F4B9C
:1054900059684A682B7803F10053203B02EBC303A1
:1054A0009B784A7A03EB42034B441FFA83F909EBDA
:1054B0000603B3F5A07F05DA0134A4B2A04501D0FC
:1054C0000135DCE7BDE8F88304010020FC00002082
:1054D0002DE9F84F4FF0C044012626800520FBF748
:1054E0009FF8CF232380604B00221A8083211980EC
:1054F00030211980ED2121804FF0640119800321B2
:1055000019801221198081211980E82121808521AB
:1055100019801E8079211980CB21218039211980A1
:105520002C2119801A80342119804FF0020CA3F825
:1055300000C0F721218020211980EA2121801A80D2
:105540001A80C021218026211980C12020801127A6
:105550001F80C5202080352018803E201880C7205D
:105560002080BE20188036202080282018803A25F0
:10557000258055201880B12020801A801B2018809B
:105580004FF0B608A4F80080A3F800C04FF0820ED8
:10559000A3F800E0F22020800820188021801E80DF
:1055A000E02121804FF01F09A3F800901A211980F3
:1055B0004FF0180AA3F800A00A2119800F201880C4
:1055C00006201880452018808720188032201880F7
:1055D000198007201880A3F800C0188005261E80B7
:1055E0001A804FF0E10CA4F800C01A804FF0250C8F
:1055F000A3F800C04FF0270CA3F800C01E804FF0A6
:10560000100BA3F800B04FF0090BA3F800B01D80F9
:105610004FF0780BA3F800B04FF04D0BA3F800B09B
:105620001E80A3F800A00D261E8038261E801D8037
:10563000A3F80090B72525801880A4F80080198071
:10564000A3F800E0A3F800C01A8027806420FAF7CE
:10565000E7FF292323806420FAF7E2FF0348FFF7DE
:1056600023FEBDE8F88F00BF000002602800002084
:1056700010B50446F0234FF4A07200210846FFF74E
:1056800019FE4FF0C0432C221A80002302E0034A87
:1056900014800133B3F5963FF9D310BD00000260CA
:1056A00070B514461D46BDF81060FFF703FE0128D3
:1056B0000CD04FF0C0432C221A80002302E0044A91
:1056C0001680013305FB04F29A42F8D870BD00BF82
:1056D0000000026010B5144601231A46FFF7EAFDE8
:1056E000012806D04FF0C0432C221A8003F5003366
:1056F0001C8010BD2DE9F04F87B007460C461646BA
:105700009B46BDF840300293B0F5A07F01D340F234
:105710003F17B6F5A07F01D340F23F16F02C00D919
:10572000EF24BBF1F00F01D94FF0EF0BB7422FD8A8
:1057300033463E461F4600215C4505D9C1F10101B3
:10574000C9B223465C469B46BA1B93B21A460FFA6F
:1057500083F8ABEB04091FFA89F90FFA89FAB8F15B
:10576000000F17D0BAF1000F14D0BE4220D201238F
:1057700003935C4520D201230493D04520DD08EB40
:10578000D8756D1000293CD1CDF814B0934643E094
:105790000121D1E709F101030132029900919BB285
:1057A00092B221463046FFF77BFF07B0BDE8F08F8D
:1057B0004FF0FF330393DCE74FF0FF330493DCE754
:1057C000CAF1000505EBD57545F34F05DAE71D462F
:1057D000029A21463846FFF77DFFBE4215D0C8F138
:1057E00000039D4215DDA5EB09031BB2039ABF1A06
:1057F000BFB25545EBDA5B441BB2049A1444A4B221
:10580000E5E7CDF814B09346E2E7059B9C42E6D16C
:10581000CBE72B46EDE71D46029A21463046FFF7BF
:1058200059FFBE4211D0C8F100039D4211DDA5EB26
:1058300009031BB2039A1644B6B25545EBDA5B4432
:105840001BB2049A1444A4B2E5E7059B9C42EAD13A
:10585000ABE72B46F1E70000F0B58BB000240094D5
:10586000294B1A6B42F080021A631A6B02F0800215
:105870000092009A01941A6B42F004021A631A6BA8
:1058800002F004020192019A02941A6B42F0100293
:105890001A631A6B02F010020292029A03941A6BB6
:1058A00042F008021A631A6B02F008020392039A8C
:1058B00004941A6B42F001021A631B6B03F001039C
:1058C0000493049B114F224601213846FBF71EF832
:1058D0000F4E22464FF482513046FBF717F8012550
:1058E000059506950794089405A93846FAF72AFF06
:1058F0004FF48253059306950794089405A9304602
:10590000FAF720FF0BB0F0BD00380240000802405B
:10591000000C0240F0B583B0064600251EE0DF1300
:10592000254A136801331360B3F5A07F31DA224BA7
:10593000188807EE907AF8EEE77A9FED207A77EEF6
:10594000877AFCEEE77A4FF6E073009317EE903A11
:105950009BB20246B821FFF7CDFE0135184B1A68FD
:1059600091695368D269B3FBF2F303FB01F3AB42D5
:105970001FD9735D1B021BB2721952781343C3EB1C
:1059800003139A001346002AC9DA02F5FF437F3356
:10599000C5E70024146008E0A0B200230093782338
:1059A0000246F121FFF7A6FE0134B4F5A07FF3DB38
:1059B000BDE703B0F0BD00BF680100208A9D3843F9
:1059C000F421002010B59AB004464FF4FC60FFF7B4
:1059D0005FFC6268244901A800F010FE01AA1E21A4
:1059E0000020FFF737FDE269204901A800F006FE1C
:1059F00001AA28210020FFF72DFD6268E369B2FBB0
:105A0000F3F21B4901A800F0F9FD01AA32210020A0
:105A1000FFF720FD628C174901A800F0EFFD01AAF5
:105A20003C210020FFF716FDA269134901A800F0F0
:105A3000E5FD01AA46210020FFF70CFDE28A0F498F
:105A400001A800F0DBFD01AA50210020FFF702FDB4
:105A500022680B4901A800F0D1FD01AA5A210020BB
:105A6000FFF7F8FC1AB010BDC8880008D8880008F5
:105A7000E8880008F88800080C8900081C890008DC
:105A80003489000838B5002A46D085B28CB2464A1F
:105A900021462846FFF7DEFC04F10A01434A89B299
:105AA0002846FFF7D7FC04F11401414A89B2284681
:105AB000FFF7D0FC04F11E013E4A89B22846FFF7E9
:105AC000C9FC04F128013C4A89B22846FFF7C2FC10
:105AD00004F13201394A89B22846FFF7BBFC04F1D0
